:0C0000000C946C000C9400000C940000A8
:10000C000C9400000C9400000C9400000C94000064
:10001C000C9400000C9400000C9400000C94000054
:10002C000C9400000C9400000C9400000C94000044
:10003C000C9400000C9400000C9400000C94000034
:10004C000C9400000C9400000C9400000C94000024
:10005C000C9400000C9400000C9400001027E80392
:10006C0064000A00010000100001100001000303ED
:10007C000302020C0008000100060100414C415231
:10008C004D412041435449564100434C4156453A59
:10009C002000414C41524D41004445534143544989
:1000AC005641444100414C41524D41204143544939
:1000BC00564144410043414D4249415220434C4139
:1000CC00564500000100080386000000F894EE2756
:1000DC00EFBBF1E0F5BFE5BF8DE0A2E0BB27ED93F0
:1000EC008A95E9F780E098E0A0E0B1E0ED93019704
:1000FC00E9F7E0EDF0E085919591009761F0A5911D
:10010C00B59105901590BF01F00105900D920197E6
:10011C00E1F7FB01F0CFE0E0EEBBEFEFEDBFE8E085
:10012C00EEBFC0E0D3E00C9420022C978CE060E092
:10013C0070E0EAE7F0E0A9D20A93399A389A3A9A31
:10014C003B9A3C9A3D9AA2E3B0E0C8D200E00C3056
:10015C0070F4A2E0B0E0C2D2E02FF0E0DE01119624
:10016C00AE0FBF1FAC910FD00BD00F5FF0CFECE0F8
:10017C00E0930003A09100031ED008812D960895F2
:10018C00419A419808950A930A2F03FF02C0459A99
:10019C0001C0459802FF02C0449A01C0449801FF77
:1001AC0002C0439A01C0439800FF02C0429A01C0AA
:1001BC0042980C94C7011A930A931A2F409804C0C2
:1001CC001A930A931A2F409AA2E0B0E087D2E12F3B
:1001DC00E07F0E2F02950F70A02FD5DFD1DFE12F1E
:1001EC00EF700E2FA02FCFDFA2E0B0E077D2C8DFE8
:1001FC000991199108953ED21A2F2B2F00E0E02F70
:10020C000F5FF0E0E10FF21FA491DADFE02FF0E0D6
:10021C00E10FF21FE491E03091F70C94DE01A1E0C4
:10022C00CADF08951A930A930A2F1A81E02FF0E07F
:10023C00309719F4A12FA05814C0E130A0E0FA07B0
:10024C0019F4A12FA0540DC0E230A0E0FA0719F464
:10025C00A12FAC5606C0E330A0E0FA0719F4A12F89
:10026C00AC52A9DF198108810C94DF01509A519A84
:10027C00529A539A5E9A5D9A5C9A08954E9B06C068
:10028C004D9B1FC04C9B37C0EE274FC0E1E3599AE2
:10029C005A9A5B9A00004E9B48C0E4E3589A5998CE
:1002AC0000004E9B42C0E7E3599A5A9800004E9BBF
:1002BC003CC0EAE25A9A5B9800004E9B36C0EE278F
:1002CC0034C0E2E3599A5A9A5B9A00004D9B2DC0B8
:1002DC00E5E3589A599800004D9B27C0E8E3599ADA
:1002EC005A9800004D9B21C0E0E35A9A5B9800009D
:1002FC004D9B1BC0EE27E3E3599A5A9A5B9A000078
:10030C004C9B13C0E6E3589A599800004C9B0DC0C7
:10031C00E9E3599A5A9800004C9B07C0E3E25A9AB9
:10032C005B9800004C9B01C0EE27589859985A983E
:10033C005B980895289A8BE18A95F1F7289808958F
:10034C00E0E0E0930103E0930203199BFECF80E908
:10035C008A95F1F70000A1E0B3E020D1199B05C00C
:10036C0023D1A039E1E0BE0708F001C0F0CF089519
:10037C000A9300E0043028F41CD1A0E3A0830F5FA3
:10038C00F9CF0991089576D111E020E000E0043016
:10039C0068F40FD1A081E02FF0E0E25FFC4FE08128
:1003AC00EA1711F010E020E00F5FF1CFE12FF22FF0
:1003BC0068D12396089562DFE0930503E030D9F30A
:1003CC00FDD05CDFE0930503E030D9F7089556DFEC
:1003DC00E0930503E030D9F3F1D0A0910503F0DEF2
:1003EC004DDFE0930503E030D9F7089547DFE09344
:1003FC000503A0DFA5DFD8D0559730F0A0910303FB
:10040C00B0910403119741F42A9A5F9AE1E0F0E06D
:10041C00E0930303F0930403E0910503E03031F320
:10042C00CDD0A0910503CCDE29DFE0930503E030AD
:10043C00D9F70895E0E8E0936100E0E0E093610013
:10044C0074DE14DF299A209A579A229AC1D0ADE211
:10045C00B0E027D1F0E0E0931203F0931303A091E6
:10046C001203B0911303AF3FE0E0BE0709F480DF45
:10047C00E0910803F0910903E130A0E0FA07B1F430
:10048C00B2D0A8E8B0E0B3D0B1DFA6E0B3E086D03C
:10049C00BCD059F478DFE130A0E0FA0721F4BBD0EE
:1004AC00E2E0F0E0BED0BBDEC1D054C0E230A0E050
:1004BC00FA0771F52A985F98AED0E5E0EA93A0E0D0
:1004CC00B1DEAEE9B0E097DEE2E0EA93A1E0AADEAD
:1004DC00A5EAB0E090DE6FDFAFD0AA3281F4A6D0EF
:1004EC00E1E0F0E09ED09BDEE0E0EA93A0E09ADE53
:1004FC00A1EBB0E080DEA8EBBBE0F0D007C09CD055
:10050C00A33229F493D0E3E0F0E08BD088DE22C054
:10051C00E330A0E0FA07F1F466D0A1ECB0E067D0CC
:10052C0056DFA6E0B3E03AD070D0A1F4EEE0F3E0F1
:10053C00FA93EA93EDE2F0E0FA93EA93A4E0B0E0E8
:10054C001BD046D0E1E0F0E06CD070D068DEA8EBB8
:10055C00BBE0C4D08DCFFFCF77D00A851B85288513
:10056C00398578D041F01F930F937BD09AD0AF91FF
:10057C00BF91EC93F6CF0FC067D0088519852A85FB
:10058C003B8568D041F01F930F936BD0EC91AF91EA
:10059C00BF9193D0F6CF72D02C960895ED91FD912A
:1005AC003196FE93EE930895A0910103B09102034E
:1005BC000895E02FF0E0E65FFC4F0895E09106030C
:1005CC00F0910703E25FFC4FA0910503A08308950F
:1005DC00EAE0F3E0FA93EA93EDE2F0E0FA93EA93BF
:1005EC00A4E0B0E0B9CFE1E0EA93A0E01BCE03DEDB
:1005FC00E0E0EA93A1E016DEA6E9B0E0FCDDE091D4
:10060C000603E95FEA93A1E00DCEA0910603B09139
:10061C00070314970895E0E0E0930303E0930403C9
:10062C000895E0930803F09309030895E0E0E09344
:10063C000603E09307030895E0910603F091070386
:10064C00E25FFC4FA0810895BA93AA9310D048851D
:10065C0059850895EE81FF813197EE83FF833196A2
:10066C0008950F5F1F4FD9012F5F3F4F08955A9385
:10067C004A933A932A931A930A9308955D814C8175
:10068C003B812A81198108810895AF93BF93DB01C7
:10069C00AC0FBD1F05900D928A95E1F7BF91AF91FC
:1006AC000895F999FECFFF93FFB7F894A1BDB2BDA1
:1006BC00F89AE0B5FFBFFF910895F99B02C0A89589
:1006CC00FCCF9FB7F894A1BDB2BDF89A80B5E817DE
:1006DC0019F0E0BDFA9AF99A9FBF0895109639F077
:1006EC00A89580ED97E00197F1F71197C9F7089558
:00000001FF
