:080000000C946C000C9400004C
:100008000C9400000C9400000C9400000C94000068
:100018000C9400000C9400000C9400000C94000058
:100028000C9400000C9400000C9400000C94000048
:100038000C9400000C9400000C9400000C94000038
:100048000C9400000C9400000C9400000C94000028
:100058000C9400000C9400000C9400000C94000018
:100068001027E80364000A000100001000011000D6
:10007800010003030302020C00080001000601004E
:10008800414C41524D412041435449564100434C53
:100098004156453A2000414C41524D410044455398
:1000A80041435449564144410043414D424941521C
:1000B80020434C41564500414C41524D412041435B
:1000C80054495641444100000100060386000000DF
:1000D800F894EE27EFBBF1E0F5BFE5BF8DE0A2E0B5
:1000E800BB27ED938A95E9F780E098E0A0E0B1E0BE
:1000F800ED930197E9F7E0EDF0E085919591009790
:1001080061F0A591B59105901590BF01F00105909A
:100118000D920197E1F7FB01F0CFE0E0EEBBEFEFC6
:10012800EDBFE8E0EEBFC0E0D3E00C94C3012C972C
:100138008CE0A0E0B0E0EAE7F0E064D20A93399AF4
:10014800389A3A9A3B9A3C9A3D9AA2E3B0E07ED21A
:1001580000E00C3070F4A2E0B0E078D2E02FF0E0DC
:10016800DE011196AE0FBF1FAC910FD00BD00F5F01
:10017800F0CFECE0E0930003A091000321D00881C8
:100188002D960895419A41980895AA93E881E870B8
:1001980011F0459A01C04598E881E47011F0449A3D
:1001A80001C04498E881E27011F0439A01C0439875
:1001B800E881E17011F0429A01C0429821960895B1
:1001C800AA930A9340988FD136C0AA930A93409A6B
:1001D8008AD131C0BA93AA930A9300E0E02F0F5F47
:1001E80098D1A491F2DFE02F94D1E491E030B1F7F7
:1001F80008810C94A601A1E0E3DF0895AA93E881A1
:10020800F0E0309719F4A981A05814C0E130A0E0BB
:10021800FA0719F4A981A0540DC0E230A0E0FA074A
:1002280019F4A981AC5606C0E330A0E0FA0719F426
:10023800A981AC52C5DF22960895509A519A529AD4
:10024800539A5E9A5D9A5C9A08954E9B06C04D9BA0
:100258001FC04C9B37C0EE274FC0E1E3599A5A9A0A
:100268005B9A00004E9B48C0E4E3589A59980000F6
:100278004E9B42C0E7E3599A5A9800004E9B3CC0F7
:10028800EAE25A9A5B9800004E9B36C0EE2734C0CB
:10029800E2E3599A5A9A5B9A00004D9B2DC0E5E318
:1002A800589A599800004D9B27C0E8E3599A5A98E4
:1002B80000004D9B21C0E0E35A9A5B9800004D9BDB
:1002C8001BC0EE27E3E3599A5A9A5B9A00004C9BAD
:1002D80013C0E6E3589A599800004C9B0DC0E9E317
:1002E800599A5A9800004C9B07C0E3E25A9A5B98C7
:1002F80000004C9B01C0EE27589859985A985B9873
:1003080008950A9300E0043028F409D1A0E3A083FB
:100318000F5FF9CF099108956CD111E020E000E05A
:10032800043068F4E02FF0E0E65FFC4FA081F7D0DE
:10033800E081EA1711F010E020E00F5FF1CFE12F24
:10034800F22F5CD12396089580DFE0930103E0301B
:10035800D9F3EAD07ADFE0930103E030D9F70895C2
:1003680074DFE0930103E030D9F3DED0A0910103FC
:100378002CDF6BDFE0930103E030D9F70895E0E864
:10038800E0936100E0E0E0936100D1DE56DFB9DF81
:10039800D5D0E0930803E0930903E0910603F091B8
:1003A8000703E130A0E0FA07F9F4D5D0A8E8B0E0F7
:1003B800D6D0C9F4F0D011F4F3D00FC0A4E0B3E064
:1003C800ED91FD913196FE93EE93A0910403B091C7
:1003D8000503139730F0E4E0F0E0E0930603F093B0
:1003E800070309DFE5D057C0E230A0E0FA0711F5AE
:1003F800E5E0EA93A0E002DFAEE9B0E0EBDEE2E0A0
:10040800EA93A1E0FBDEA5EAB0E0E4DE9DDFD6D00A
:10041800AA3221F4CDD0E1E0F0E006C0CFD0A3327B
:1004280041F4C6D0E3E0F0E0E0930603F09307035D
:10043800E2DE31C0E330A0E0FA07F1F4E1E0EA934C
:10044800A0E0DCDEA1EBB0E08AD0A9F4EEE0F3E0B6
:10045800FA93EA93E0E0F0E0FA93EA93A4E0B0E0DC
:100468002ED06CD0E0930403E0930503E1E0F0E0C4
:10047800ADD09ED0C0DE0FC0E430A0E0FA0759F43A
:100488006AD0AFEBB0E06BD031F485D011F488D0EE
:100498009DD08ED0B0DE81CFFFCFBA93AA93A8D0DB
:1004A800088519852E813F8196D041F01F930F93BF
:1004B80099D0AFD0AF91BF91EC93F6CF11C0BA935A
:1004C800AA9396D00E811F812885398584D041F062
:1004D8001F930F9387D0EC91AF91BF91A6D0F6CF21
:1004E8008CD02A960895A2E0B0E0B0D0E981E07FF0
:1004F8000E2F02950F70A02F48DE44DEE981EF70C1
:100508000E2FA02F42DEA2E0B0E0A0D03BDE088193
:100518000895A981BA81F0E0EA0FFB1F0895E02F42
:10052800F0E0E25FFC4F0895E0910203F0910303CD
:10053800E25FFC4FA0910103A0830895EAE0F3E095
:10054800FA93EA93E0E0F0E0FA93EA93A4E0B0E0EB
:10055800A4DFE0E00895E0E0EA93A0E04FCE3ADEC1
:10056800E0E0EA93A1E04ADEA6E9B0E033DEE091FC
:100578000203E95FEA93A1E041DEF2DEA2E0B3E024
:10058800ED91FD913196FE93EE93A0910203B09107
:10059800030314970895C0DEE130A0E0FA07089538
:1005A800E0E0E0930403E0930503E2E0F0E008955F
:1005B800E0E0E0930203E09303030895E09102036F
:1005C800F0910303E25FFC4FA0810895E0930603D6
:1005D800F09307030895EC81FD813197EC83FD8347
:1005E800319608950F5F1F4FD9012F5F3F4F089530
:1005F8003A932A931A930A9308953B812A81198181
:1006080008810895AC0FBD1F05900D928A95E1F7FA
:100618000895F999FECFFF93FFB7F894A1BDB2BD35
:10062800F89AE0B5FFBFFF910895F99B02C0A8951D
:10063800FCCF9FB7F894A1BDB2BDF89A80B5E81772
:1006480019F0E0BDFA9AF99A9FBF0895109639F00B
:10065800A89580ED97E00197F1F71197C9F70895EC
:00000001FF
